:100000000C9434000C9449000C9449000C9460004A
:100010000C9449000C9449000C9449000C9449003C
:100020000C9449000C9449000C9449000C9449002C
:100030000C9449000C9449000C9449000C9449001C
:100040000C9449000C9449000C9449000C9449000C
:100050000C9449000C9449000C9449000C944900FC
:100060000C9449000C94490011241FBECFEFD8E036
:10007000DEBFCDBF11E0A0E0B1E0E8E0F2E002C0F9
:1000800005900D92A831B107D9F70E949C000C94FD
:1000900002010C9400008FEF8AB981E084B98BB91A
:1000A00085B1866085B9F894E8E6F0E080818160EA
:1000B0008083EBE6F0E08081866080837894089509
:1000C0001F920F920FB60F9211248F939F93AF93AD
:1000D000BF93199913C08091000190910101A091E3
:1000E0000201B09103010196A11DB11D8093000191
:1000F00090930101A0930201B09303011A9913C0D8
:100100008091000190910101A0910201B091030141
:100110000197A109B1098093000190930101A09377
:100120000201B0930301BF91AF919F918F910F9006
:100130000FBE0F901F9018950E944B000F2EFAE0F3
:100140008F2E912CA12CB12CF02D16EF6091000177
:10015000709101018091020190910301A501940128
:100160000E94E00069017A018091000190910101F3
:10017000A0910201B0910301A90114039001159F00
:10018000300D1124820F931F64E071E00E94CE00B5
:1001900064E071E0C6010E94CE00D8CF880F991F9D
:1001A000FB01E80FF91F80818BB98FE39CE9019770
:1001B000F1F700C0000095B181E0892785B9089565
:1001C000A1E21A2EAA1BBB1BFD010DC0AA1FBB1F5B
:1001D000EE1FFF1FA217B307E407F50720F0A21BCD
:1001E000B30BE40BF50B661F771F881F991F1A943A
:1001F00069F760957095809590959B01AC01BD0164
:08020000CF010895F894FFCF2F
:100208006300000040004F00240030001900120075
:08021800020058000000100074
:00000001FF
