S0130000506F72744430426C696E6B2E7372656308
S11300000C9434000C943E000C943E000C943E007E
S11300100C943E000C943E000C943E000C943E0064
S11300200C943E000C943E000C943E000C943E0054
S11300300C943E000C943E000C943E000C943E0044
S11300400C943E000C943E000C943E000C943E0034
S11300500C943E000C943E000C943E000C943E0024
S11300600C943E000C943E0011241FBECFEFD8E048
S1130070DEBFCDBF0E9440000C9458000C940000D9
S11300808FEF8AB91BB88BB92FEF33EC99E021506D
S113009030409040E1F700C000001BB82FEF33EC74
S11300A099E0215030409040E1F700C00000EBCFD0
S10700B0F894FFCFEE
S9030000FC
