:100000000C9434000C9446000C9446000C9446006A
:100010000C9446000C9446000C9446000C94460048
:100020000C9446000C9446000C9446000C94460038
:100030000C9446000C9446000C9452000C9446001C
:100040000C9446000C9446000C9446000C94460018
:100050000C9446000C9446000C9446000C94460008
:100060000C9446000C94460011241FBECFEFD8E03C
:10007000DEBFCDBF21E0A0E0B1E001C01D92A43001
:10008000B207E1F70E94AE000C94C1000C9400008E
:1000900092E094BD85B5836085BD89EF87BD90935F
:1000A0006E0008951F920F920FB60F9211248F9336
:1000B0009F93AF93BF938091000190910101A09114
:1000C0000201B09103010196A11DB11D80930001B1
:1000D00090930101A0930201B0930301BF91AF91EE
:1000E0009F918F910F900FBE0F901F9018950F93B7
:1000F0001F930091000110910101209102013091A4
:100100000301DC01CB01800F911FA21FB31F0091DF
:1001100000011091010120910201309103010817A3
:1001200019072A073B0798F39BB181E089278BB910
:100130001F910F9108950F931F930091000110914B
:1001400001012091020130910301601771078207BC
:10015000930798F7589A1F910F9108958FEF8AB9D6
:100160001BB80E944800789468E873E180E090E052
:100170000E949B0068EC70E080E090E00E947700B5
:06018000F9CFF894FFCF57
:00000001FF
