:100000000C9434000C9446000C9446000C9446006A
:100010000C9446000C9446000C9446000C94460048
:100020000C9446000C9446000C9446000C94460038
:100030000C9446000C9446000C9452000C9446001C
:100040000C9446000C9446000C9446000C94460018
:100050000C9446000C9446000C9446000C94460008
:100060000C9446000C94460011241FBECFEFD8E03C
:10007000DEBFCDBF21E0A0E0B1E001C01D92A43001
:10008000B207E1F70E94A7000C94BF000C94000097
:1000900092E094BD85B5836085BD89EF87BD90935F
:1000A0006E0008951F920F920FB60F9211248F9336
:1000B0009F93AF93BF938091000190910101A09114
:1000C0000201B09103010196A11DB11D80930001B1
:1000D00090930101A0930201B0930301BF91AF91EE
:1000E0009F918F910F900FBE0F901F9018950F93B7
:1000F0001F930091000110910101209102013091A4
:100100000301AB01BC01400F511F621F731F80919F
:10011000000190910101A0910201B09103018417A7
:100120009507A607B70798F31F910F910895AB01A4
:10013000BC018091000190910101A0910201B09158
:100140000301481759076A077B0798F708958FEF4F
:100150008AB91BB80E944800789468E873E180E08F
:1001600090E00E949700589AC1E068EC70E080E04F
:1001700090E00E9477008BB18C278BB9F6CFF89472
:02018000FFCFAF
:00000001FF
